:100000000C942A000C9434000C9434000C943400AA
:100010000C9434000C9434000C9434000C94340090
:100020000C9434000C9434000C9434000C94340080
:100030000C9434000C9434000C9434000C94340070
:100040000C9434000C9434000C9434000C94340060
:100050000C94340011241FBECFE5D8E0DEBFCDBF25
:100060000E9436000C944F000C94000010BC87E6F0
:1000700089B980B5866880BD8AB188698AB91BBA9A
:100080008FEF8ABB87BB92E098BB15BA84BB12BACC
:100090008EEF81BB90E482B3892782BBFCCFF894BA
:0200A000FFCF90
:00000001FF
