S00C0000415076322E73726563DF
S11300000C94C4020C94E1020C94E1020C94E102FD
S11300100C94E1020C94E1020C94E1020C94E102D0
S11300200C94E1020C945E060C94E1020C940F040F
S11300300C94E1020C94E1020C94E1020C94E102B0
S11300400C94E1020C94E1020C94E1020C94E102A0
S11300500C94E1026103650369036D037103750385
S113006079037D0361B3616C61726D0061B3616C8E
S113007061726D0061B3616C61726D0061B3616C3A
S113008061726D0061B3616C61726D00000000000B
S1130090003E5B4F5B3E3E6B4F6B3E1C3E7C3E1C0A
S11300A0183C7E3C181C577D571C1C5E7F5E1C0050
S11300B0183C1800FFE7C3E7FF0018241800FFE707
S11300C0DBE7FF30483A060E2629792926407F05CA
S11300D00507407F05253F5A3CE73C5A7F3E1C1CE0
S11300E008081C1C3E7F14227F22145F5F005F5FA0
S11300F006097F017F006689956A6060606060948C
S1130100A2FFA29408047E040810207E2010080890
S11301102A1C08081C2A08081E101010100C1E0C9B
S11301201E0C30383E3830060E3E0E06000000002D
S11301300000005F00000007000700147F147F1414
S1130140242A7F2A12231308646236495620500059
S113015008070300001C2241000041221C002A1C45
S11301607F1C2A08083E0808008070300008080830
S11301700808000060600020100804023E51494550
S11301803E00427F400072494949462141494D336E
S11301901814127F1027454545393C4A49493141D5
S11301A0211109073649494936464949291E0000A3
S11301B014000000403400000008142241141414F8
S11301C01414004122140802015909063E415D59E4
S11301D04E7C1211127C7F494949363E41414122ED
S11301E07F4141413E7F494949417F090909013E17
S11301F0414151737F0808087F00417F410020403E
S1130200413F017F081422417F404040407F021C4F
S1130210027F7F0408107F3E4141413E7F09090966
S1130220063E4151215E7F09192946264949493232
S113023003017F01033F4040403F1F2040201F3FF8
S11302404038403F6314081463030478040361597D
S1130250494D43007F4141410204081020004141BF
S1130260417F04020102044040404040000307086B
S11302700020545478407F28444438384444442867
S1130280384444287F385454541800087E0902180E
S1130290A4A49C787F0804047800447D4000204096
S11302A0403D007F1028440000417F40007C0478DA
S11302B004787C080404783844444438FC18242422
S11302C01818242418FC7C080404084854545424A2
S11302D004043F44243C4040207C1C2040201C3C1F
S11302E04030403C44281028444C9090907C446416
S11302F0544C4400083641000000770000004136A9
S1130300080002010204023C2623263C1EA1A1612E
S1130310123A4040207A3854545559215555794160
S11303202154547841215554784020545579400C37
S11303301E52721239555555593954545459395518
S11303405454580000457C41242A2B2A10000145AE
S11303507C40F0292429F022362B26227C54554552
S1130360002054547C547C0A097F4932494949325B
S11303703248484832324A4848303A4141217A3A70
S113038042402078009DA0A07D39444444393D403A
S113039040403D3C24FF2424042A2B2A102B2FFC0C
S11303A02F2BFF0929F62022362B2622205454799C
S11303B0410000447D413048484A323F28242220ED
S11303C0007A0A0A723E0909295E2629292F28265D
S11303D02929292630484D402038080808080808EB
S11303E00808382F10C8ACBA2F102834FA00007B44
S11303F0000008142A142221352D2D2BAA005500A3
S1130400AAAA55AA55AA000000FF0000293F24000B
S1130410141414FF001010FF00FF1010F010F0145B
S11304201414FC001414F700FF102A2A6A5C141434
S1130430F404FC141417101F10101F101F141414AC
S11304401F00101010F0004464554C441010101F8D
S113045010101010F010000000FF101010101010F9
S1130460101010FF10000000FF141C22262322008D
S1130470001F10170000FC04F414141710173F2970
S11304802961310000FF00F714141414141414F734
S113049000F7141414171410101F101F141414F45C
S11304A0143F040B103F00001F101F1C2226231CA6
S11304B0000000FC140000F010F01010FF10FF14F6
S11304C01414FF141010101F00000000F010FFFFA0
S11304D0FFFFFFF0F0F0F0F0FFFFFF00000000006E
S11304E0FFFF0F0F0F0F0F38444438447C2A2A3E75
S11304F0147E02020606027E027E026355494163AF
S11305003844443C04407E201E201C222623229989
S1130510A5E7A5991C2A492A1C4C7201724C1C2A75
S11305202A4A2C3048784830BC625A463D3E4949F4
S113053049007E0101017E2A2A2A2A2A44445F4472
S1130540443E0206033C06090906001C2226231C1D
S1130550E080FF000008086B6B083612362436066C
S11305600F090F060000181800000010100030409A
S1130570FF0101001F01011E00191D1712003C3C60
S11305803C3C06090906000011241FBECFE5D8E053
S1130590DEBFCDBF11E0A0E6B0E0EAEDF1E202C0BB
S11305A005900D92AC30B107D9F725E0ACE0B1E08D
S11305B001C01D92AE3AB207E1F70E949D080C9467
S11305C0EB100C9400008FB9779BFECF08950F9326
S11305D01F93CF93DF93843008F5D42F162FC82FA1
S11305E0C498082F033041F080E00E94E30280E0C9
S11305F00E94E3020F5FF6CF812F0E94E3028D2F4A
S11306000E94E302D0E0DC1741F080E00E94E302A4
S113061080E00E94E302DF5FF6CFC49ADF91CF91BE
S11306201F910F910895462F623018F46CE00C94DA
S1130630E7020895462F603118F46AE00C94E7024B
S11306400895462F623018F46FE00C94E702089581
S1130650462F683018F46BE00C94E7020895462F97
S113066069E00C94E702462F61E00C94E702462F00
S113067062E00C94E702462F63E00C94E702462FF5
S113068064E00C94E702462F65E00C94E702462FE1
S113069066E00C94E702462F67E00C94E702462FCD
S11306A068E00C94E7020F931F93E62F642F0E2F3C
S11306B010E00830110528F5F801E65DFF4F0C94B1
S11306C0E5101F910F910C9433031F910F910C941B
S11306D037031F910F910C943B031F910F910C94BE
S11306E03F031F910F910C9443031F910F910C949E
S11306F047031F910F910C944B031F910F910C947E
S11307004F031F910F910895BD9ABF9ABC9AC59843
S1130710C798C49881E58DB908959AE0899FA0018E
S1130720112420E030E05D9BFECFF901E40FF51FBA
S1130730EC58FF4F90819CB92F5F3F4F2A30310511
S113074091F70895CF93DF93CDB7DEB72A970FB60D
S1130750F894DEBF0FBECDBF8AE0E7E9F0E0DE012A
S1130760119601900D928A95E1F7FE0131968AE087
S11307708E0F5D9BFECF91919CB98E13FACF2A9672
S11307800FB6F894DEBF0FBECDBFDF91CF910895B1
S1130790982F822F292F22952F709F703AE0239F44
S11307A0900D1124411105C0992349F0892F861B0E
S11307B006C0981718F4892F860F01C080E06AE0FC
S11307C00E94C510292F30E1839FC0011124822B80
S11307D00895CF93DF93482F80911E01C0911E018D
S11307E0D0E0E0911E01F0E0E25DFE4F811103C014
S11307F0808128E102C080812CE361E00E94C8036B
S1130800C25DDE4F8883DF91CF910895982F929532
S11308109F708F702AE0929F800D112408951F927B
S11308200F920FB60F9211242F933F934F935F9320
S11308306F937F938F939F93AF93BF93CF93EF93D4
S1130840FF9382B78A5F82BF80910C0190910D0162
S11308508C329140A8F010920D0110920C0187E2A5
S113086091E00E949310809129018093210180914D
S1130870280180932201809127018093230109C0DC
S113088080910C0190910D01019690930D0180933C
S11308900C01C0911501C130B9F5909121018091ED
S11308A02401981314C0909122018091250198137A
S11308B00EC0809112010E948D0383E08093100189
S11308C082E080931501C0930E0110921301909160
S11308D0210180912401891750F0809124010E9404
S11308E00604C82F809121010E9406040AC0809149
S11308F024010E940604C82F809121010E9406044D
S1130900C85EC81BC0939200FF91EF91CF91BF9135
S1130910AF919F918F917F916F915F914F913F9193
S11309202F910F900FBE0F901F9018952F923F920A
S11309304F925F926F927F928F929F92AF92BF92EB
S1130940CF92DF92EF92FF920F931F93CF93DF9397
S1130950CDB7DEB7A3970FB6F894DEBF0FBECDBFF9
S1130960522FE82FEF70F0E0EE0FFF1FE05AFF4F19
S113097020803180982F907F59F082958F70E82FD6
S1130980F0E0EE0FFF1FE05AFF4FC080D18004C09B
S1130990C0906000D0906100E62FEF70F0E0EE0FA1
S11309A0FF1FE05AFF4F40805180862F807F59F00F
S11309B062956F70E62FF0E0EE0FFF1FE05AFF4FD5
S11309C0E080F18004C0E0906000F0906100E42FCA
S11309D0EF70F0E0EE0FFF1FE05AFF4F6080718070
S11309E0842F807F59F0E42FE295EF70F0E0EE0F52
S11309F0FF1FE05AFF4F8080918004C08090600008
S1130A0090906100CE0101969BA38AA380E2AAA1E3
S1130A10BBA11D928A95E9F75E01B7E0AB0EB11C4C
S1130A208E01025F1F4FBE016A5E7F4FDE015E963C
S1130A3080E090E09601082E02C0369527950A942E
S1130A40E2F7220FE22FEE709101082E02C03695D4
S1130A5027950A94E2F72295220F207E2E2BF5018A
S1130A6022935F019701082E02C0369527950A94B8
S1130A70E2F722952077F8013081232B208392011D
S1130A80082E02C0369527950A94E2F72770FB01D9
S1130A903081232B20834F3FB1F09401082E02C0F4
S1130AA0369527950A94E2F727703C91E22FE32BC1
S1130AB09301082E02C0369527950A94E2F72295F1
S1130AC020772E2B2C930396015011096150710944
S1130AD011978F30910509F0ADCF8B8582608B879C
S1130AE08D8582608D874F3F31F08B8980628B8B3F
S1130AF08D8980628D8B513039F488858E6E88871C
S1130B008F8180618F830BC0523049F4888980675C
S1130B10888B888D8760888F8F8580688F87809188
S1130B2092008F3F91F480911501813009F05EC0ED
S1130B308F8181608F838981816089838F8D8068B3
S1130B408F8F898D8068898F6EC08091100181118B
S1130B50EACF8FEF8887888B888F3FEF2FEF4FEF97
S1130B609FEF80E008E010E060E870E050919200B0
S1130B708517B8F5843048F4D801082E02C0B5951D
S1130B80A7950A94E2F7A0959A235CEF580F583082
S1130B9050F45CEF580FDB0102C0B595A7955A9548
S1130BA0E2F7A0953A2354EF580F583050F454EF1D
S1130BB0580FDB0102C0B595A7955A95E2F7A095A9
S1130BC02A235CEE580F543050F45CEE580FDB01CE
S1130BD002C0B595A7955A95E2F7A0954A238F5F71
S1130BE0C5CF4887388F288B98A39DCF8091150156
S1130BF08230C9F4809117018E31A8F4AE014F5FA1
S1130C005F4F24E080E090E0DA01A80FB91F3C9127
S1130C1030953C93019688309105B1F72150485F97
S1130C205F4F2111EFCF80911301813099F49E0120
S1130C302F5F3F4F44E080E090E0D901A80FB91F37
S1130C401C92019688309105C1F74150285F3F4FAF
S1130C504111F1CF8E010F5F1F4FD12CE12CF12CEC
S1130C60F801EE0DFF1D40816E2D8D2D0E94530362
S1130C70FFEFEF1AFF0A38E0E316F10489F7D39483
S1130C80085F1F4F84E0D812E9CFA3960FB6F894FB
S1130C90DEBF0FBECDBFDF91CF911F910F91FF90AB
S1130CA0EF90DF90CF90BF90AF909F908F907F9008
S1130CB06F905F904F903F902F9008951F920F92E6
S1130CC00FB60F9211248F939F9380911901843052
S1130CD048F0109219019C9905C080911D01816012
S1130CE080931D0180911A01843048F010921A01FA
S1130CF09D9905C080911D01826080931D018091A2
S1130D001B01843048F010921B019E9905C080910C
S1130D101D01846080931D0180911C01843048F082
S1130D2010921C019F9905C080911D0188608093D9
S1130D301D0180911901811105C09C9903C081E0B6
S1130D408093190180911A01811105C09D9903C0F6
S1130D5081E080931A0180911B01811105C09E9945
S1130D6003C081E080931B0180911C01811105C0A7
S1130D709F9903C081E080931C0180911D0180FF35
S1130D800BC080911901811107C09C9B05C0809103
S1130D901D018E7F80931D0180911D0181FF0BC079
S1130DA080911A01811107C09D9B05C080911D018E
S1130DB08D7F80931D0180911D0182FF0BC0809166
S1130DC01B01811107C09E9B05C080911D018B7F73
S1130DD080931D0180911D0183FF0BC080911C0134
S1130DE0811107C09F9B05C080911D01877F80935F
S1130DF01D0180911901882329F0809119018F5FC9
S1130E008093190180911A01882329F080911A0195
S1130E108F5F80931A0180911B01882329F08091B0
S1130E201B018F5F80931B0180911C01882329F093
S1130E3080911C018F5F80931C019091180181E0C7
S1130E40892780931801809117018C3330F48091A5
S1130E5017018F5F8093170102C0109217018091D0
S1130E601001843071F4809114018A3530F480913A
S1130E7014018F5F8093140104C01092100110922A
S1130E8014019F918F910F900FBE0F901F90189592
S1130E9080911101813081F590911001933061F1BD
S1130EA09091100191110DC09091210190932E0108
S1130EB09091220190932F019091230190933001FE
S1130EC028C090911001913011F482E022C09091D9
S1130ED01001923001F590912E019093240190918C
S1130EE02F019093250190913001909326018093D6
S1130EF01501109210010FC080911101823059F434
S1130F0080911001833039F080911501882319F004
S1130F1084E08093100180911001833049F4109291
S1130F2015010E94A203109210018FEF809392008A
S1130F3081E080930E0108958091100181110AC00F
S1130F40809111018230E8F4809111018F5F8093C8
S1130F50110117C080911001813031F48093160182
S1130F60809116010C94E90380911001823061F4A0
S1130F70109215010E94A203109210018FEF80932A
S1130F80920081E080930E010895809110018111F7
S1130F900AC0809111018230E8F0809111018150E2
S1130FA08093110117C080911001813031F41092A7
S1130FB01601809116010C94E9038091100182308E
S1130FC061F4109215010E94A203109210018FEF98
S1130FD08093920081E080930E0108958091100126
S1130FE0813069F480911E01882319F010921E014A
S1130FF01BC080911E018F5F80931E0115C08091DC
S11310001001823021F481E0809310010DC08091A1
S11310101001833049F4109215010E94A20310922A
S113102010018FEF8093920080911001811105C00F
S113103081E0809313010C94C80F81E080930E012A
S1131040089580911D0181FF16C080910F0181FDDB
S113105017C080910F01826080930F01809113016A
S1131060811103C00E9448070BC01092130181E054
S113107080930E0105C080910F018D7F80930F0135
S113108080911D0180FF16C080910F0180FD17C063
S113109080910F01816080930F0180911301811170
S11310A003C00E949C070BC01092130181E080933F
S11310B00E0105C080910F018E7F80930F018091F6
S11310C01D0183FF16C080910F0183FD17C080911D
S11310D00F01886080930F0180911301811103C077
S11310E00E94C5070BC01092130181E080930E018A
S11310F005C080910F01877F80930F0180911D01AE
S113110082FF15C080910F0182FD16C080910F01EE
S1131110846080930F0180911301811102C00C94AB
S1131120EE071092130181E080930E0108958091DF
S11311300F018B7F80930F01089510BC87E689B956
S113114080B5866880BD8AB188698AB91BBA8FEF79
S11311508ABB87BB82E088BB80EF85BB8FE084BB02
S113116012BA8EEF81BB0E948403C0E060E08C2F32
S11311700E941303CF5FC430C9F7C0E061E08C2F35
S11311800E94130360E08C2F0E942F0360E08C2FD9
S11311900E941A0367E08C2F0E942803CF5FC4309B
S11311A069F7C0E061E08C2F0E9421038FE39CE982
S11311B00197F1F700C0000060E08C2F0E9421032A
S11311C0CF5FC43079F7D0E0C0E040E06C2F8D2FC2
S11311D00E945303CF5FC830C1F7DF5FD430A1F75B
S11311E040E060EF82E00E94D60F88EC0E944E102F
S11311F089B7816089BF83B7836083BF8EB58260FE
S11312008EBD89B7846089BF0E94841081E0809379
S113121011010E94C80FE12C01E022E044E850E0F3
S113122060E070E08CE090E00E94FA0E22E041EA77
S113123050E064E170E08AE090E00E94B90E22E0A0
S11312404BEA50E064E270E08AE090E00E94B90E5C
S1131250789480910E01813009F09AC08091100138
S1131260811131C00E94C80FE12C01E022E04CE75B
S113127050E060E070E08CE090E00E94FA0E809113
S11312801101813021F422E041EA50E005C0E12C53
S113129001E022E045EB50E064E170E08AE090E098
S11312A00E94B90E80911101E12C01E022E082300C
S11312B019F44FEB50E002C04BEA50E064E270E0F6
S11312C08AE090E061C080911001813099F40E941D
S11312D0C80FE12C01E022E044E750E060E070E058
S11312E08CE090E00E94FA0E22E049EC50E068E1C4
S11312F070E048C080911001823029F50E94C80F27
S1131300E12C01E022E04CE650E060E070E08CE08B
S113131090E00E94FA0E22E042ED50E060E170E0BD
S113132080E090E00E94B90E22E04EED50E060E2D1
S113133070E080E090E00E94B90E22E04AEE50E0B6
S113134060E370E01FC0809110018330F9F40E94C3
S1131350C80FE12C01E022E044E650E060E070E0D8
S11313608CE090E00E94FA0E22E046EF50E068E143
S113137070E080E090E00E94B90E22E040E051E08D
S11313806AE270E080E090E00E94B90E10920E01D3
S11313900E94160A0E946D0F0E9421088091180174
S11313A0882309F456CF80911001882321F080917D
S11313B01001833041F44091230160912201809116
S11313C0210120E017C080911001813041F4209167
S11313D01E0160912F0180912E012F5F0AC0809120
S11313E01001843009F035CF60912F0180912E01D6
S11313F020E04FEF0E9496042CCFEF920F93262FFC
S1131400E091A901F091AA01BF0133E0660F771FB3
S11314103A95E1F7E12C01E0AC018091AC019091A7
S1131420AD010E94B90E0F91EF9008952F923F9253
S11314304F925F926F927F928F929F92AF92BF92E0
S1131440CF92DF92EF92FF920F931F93CF93DF938C
S1131450CDB7DEB728970FB6F894DEBF0FBECDBF69
S113146080911F0190912001019690932001809317
S11314701F014FE351E05C834B8361E371E07887A4
S11314806F833CE3C32E31E0D32E45E3A42E41E029
S1131490B42E56E3652E51E0752E64E3262E61E0EA
S11314A0362E87E391E09A8389831E821D82812CE4
S11314B0912C76E0F72E12E0AB81BC818C918430C4
S11314C030F01C92EF81F8851082D5011C92EF81D7
S11314D0F8852081222309F49AC280911F019091FA
S11314E02001618172810E94D110892B09F08FC281
S11314F0D5019C91911120C02350223008F087C25D
S1131500108321E02C93F301808190E0AF81B885B2
S113151018969C938E931797EAE0F1E01D96FC933E
S1131520EE931C97D1011C93EB81FC8180818F5F2A
S113153080832093AB016BC2AF81B8851C96ED917B
S1131540FC911D97DF010D900020E9F71197AE1B68
S1131550BF0BFA9EA001FB9E500D1124AF81B885EC
S11315601A965C934E931997233009F4D8C030F43B
S1131570213069F0223009F465C049C2253009F4EC
S113158089C108F411C1263009F4E6C140C2E981D9
S1131590FA816081D3018C910E94570FEF81F88505
S11315A087819085D6016C9121853285629FA00147
S11315B0639F500D1124480F591FF301208130E01F
S11315C0241735076CF4D1012C91821B9109EF810A
S11315D0F885908787839093AD018093AC0112C006
S11315E0A981BA818C9190E0EF81F88590878783F7
S11315F09093AD018093AC01D5018C91181614F42D
S113160081508C939092AA018092A901F601608185
S1131610AF81B8851C968D919C911D970E94FD0900
S11316209092AA018092A901F601E08000E021E0F5
S113163040E26D817E818091AC019091AD010E9468
S1131640080ED8C1A981BA816C91F30180810E94EE
S1131650570FAF81B88517968D919C911897E981A2
S1131660FA81208130E028173907D4F19092AA0139
S11316708092A90197FD21C0D601EC908E199109A1
S11316809093AD018093AC01F101208130E0821789
S1131690930724F41092AD011092AC0100E021E014
S11316A040E26D817E818091AC019091AD010E94F8
S11316B0080E9092AA018092A901D1012C91EF8188
S11316C0F88587819085820F911D908787839093F9
S11316D0AD018093AC01D6016C918485958588C158
S11316E0F301808190E0D6016C91EF81F88541850A
S11316F05285649F9001659F300D1124821B930BCA
S1131700908787839093AD018093AC01D5018C9130
S1131710181614F481508C930E944E0F78C1AF8137
S1131720B88517962D913C911897D3018C91D101CE
S11317304C91682F70E0621773075CF5B22FB81BE9
S11317408B2F4B1708F4842F281B3109AF81B885E0
S113175018963C932E9317973093AD012093AC01C8
S11317609092AA018092A901D6016C91CF010E94A6
S1131770FD096091A9017091AA01F601E08000E0E1
S113178021E040E28091AC019091AD010E94080EED
S1131790DFC0E4E0AF81B885EC9319160CF037C1D3
S11317A09150D5019C9333C1E981FA816081AF8165
S11317B0B88517962D913C911897F6017081D10147
S11317C08C91D9011196749FF001759FF00D11242D
S11317D0AE0FBF1FE62FF0E0AE17BF0708F04BC0F7
S11317E0462E421A749F40181124841508F4482E7A
S11317F09092AA018092A901F30180810E94570F5F
S1131800AF81B88517962D913C911897512C37FDCF
S113181021C0F601E0804BEF5E2D4503C001112489
S1131820820F931F840D951D9093AD018093AC019D
S11318306091A9017091AA0123E0660F771F2A9590
S1131840E1F700E021E040E20E94080E9092AA0134
S11318508092A901AF81B88517968D919C911897B4
S1131860480E591E18965C924E9217975092AD01ED
S11318704092AC01B7C03093AD012093AC01E3E0DA
S1131880AF81B885EC9319160CF046CF9150D50171
S11318909C9342CFE981FA816081D3018C910E94AB
S11318A0570FEF81F88587819085D1016C9170E0A5
S11318B0D601EC91AF81B88519964D915C911A9738
S11318C0E49F9001E59F300D1124280F391FF30187
S11318D04081DB01A40FB11D861B970BA217B30730
S11318E048F4EF81F885908787839093AD018093C6
S11318F0AC0111C0AF81B88518969C938E9317974D
S11319009093AD018093AC01FC92F501808118168F
S113191014F4815080839092AA018092A901D60187
S11319206C91EF81F885848595850E94FD0960910D
S1131930A9017091AA01D601EC9000E021E040E2F7
S11319408091AC019091AD010E94080E0E944E0F4F
S113195081E08093AB015BC0E981FA816081D301AE
S11319608C910E94570FEF81F88587819085D10172
S11319702C9130E0E981FA814081B901640F711D35
S113198068177907DCF19092AA018092A901319538
S113199021953109821793079CF0D601EC908E199A
S11319A091099093AD018093AC0100E021E040E205
S11319B06D817E810E94080E9092AA018092A901F5
S11319C0F1012081AF81B88517968D919C9118976C
S11319D0820F911D18969C938E9317979093AD0147
S11319E08093AC01F60160811C968D919C911D97AA
S11319F00E94FD0981E08093AB018ECE9093AD01EE
S1131A008093AC01E5E0AF81B885EC937FCEBFEF66
S1131A108B1A9B0AEB81FC813F96FC83EB834F81FD
S1131A205885415F5F4F58874F835FE0C50ED11CD7
S1131A306FE0A60EB11C7FE0670E711C8FE0280ECC
S1131A40311CAD81BE811896BE83AD83E981FA81D4
S1131A503F96FA83E983F8E08F16910409F02CCDC0
S1131A6028960FB6F894DEBF0FBECDBFDF91CF919D
S1131A701F910F91FF90EF90DF90CF90BF90AF90A8
S1131A809F908F907F906F905F904F903F902F909A
S1131A9008954F925F926F927F928F929F92AF922E
S1131AA0BF92CF92DF92EF92FF920F931F93CF9347
S1131AB0DF93EC017B016A01402EA901461B570B01
S1131AC057FF03C0519541955109C6018C1B9D0BCD
S1131AD097FF03C0919581959109552453948417D8
S1131AE0950714F0512C0AC09C2D8D2D6901292FC6
S1131AF0382F9C2F8D2FE701E92EF82ECC16DD060A
S1131B0054F49E2D8F2D7901292F382F9C2F8D2F42
S1131B10E601C92ED82E5601AC1ABD0A49018E1809
S1131B209F0897FE03C09194819491083501B7FEF4
S1131B3003C08FEF681A780A75946794E216F30667
S1131B401CF00FEF1FEF13C001E010E010C0442D94
S1131B50552089F0BE01C7010E948E0F68187908CC
S1131B6077FE04C0E00EF11E6A0C7B1C2196CC1695
S1131B70DD066CF703C0B701CE01EECF81E08093A0
S1131B80AB01DF91CF911F910F91FF90EF90DF9008
S1131B90CF90BF90AF909F908F907F906F905F9009
S1131BA04F9008950F93022F460F571F9A0121500B
S1131BB03109AC010E94490D81E08093AB010F9182
S1131BC00895AF92BF92CF92DF92EF92FF920F935C
S1131BD0CF93DF936B015901EC017C01E40EF51EF8
S1131BE0CE15DF0544F4202FA501B601CE010E94D5
S1131BF0D20D2196F5CF81E08093AB01DF91CF9197
S1131C000F91FF90EF90DF90CF90BF90AF90089529
S1131C102F923F924F925F926F927F928F929F92F8
S1131C20AF92BF92CF92DF92EF92FF920F931F93E6
S1131C30CF93DF9300D000D000D0CDB7DEB7E091D2
S1131C409400F0E08E179F070CF07AC060347105A1
S1131C500CF076C0CE2CD12CE0919300F0E0DC01A6
S1131C6036E0E39EA00DB11D1124EA17FB070CF02A
S1131C7067C0F60133E0EE0FFF1F3A95E1F7E60F78
S1131C80F71F1E161F060CF05BC02E2C402E522E82
S1131C907B01A5E04A9FA00111249E838D833C0112
S1131CA0312CFA01E81BF90BFA83E9839B01285FC5
S1131CB03F4F3C832B8335E0331641F0E981FA81B1
S1131CC0E60DF71DE457FF4F149101C010E05701D2
S1131CD0470110FF07C081E0281202C0452D08C04B
S1131CE0052D0CC0451489F091E0291206C0442D3D
S1131CF0B501C3010E948E0F08C0042D9601A601F0
S1131D00B4018D819E810E94E10D1695AFEFAA1A50
S1131D10BA0A8C0C9D1CEB81FC81AE16BF06C9F679
S1131D203394FFEF6F1A7F0A2D813E812C0D3D1DE8
S1131D303E832D8336E03312BECF81E08093AB0126
S1131D4026960FB6F894DEBF0FBECDBFDF91CF91BC
S1131D501F910F91FF90EF90DF90CF90BF90AF90C5
S1131D609F908F907F906F905F904F903F902F90B7
S1131D700895BF92CF92DF92EF92FF920F931F9339
S1131D80CF93DF93122FF02EBE2C9093AD0180934E
S1131D90AC017093AA016093A90186E0289F6001B9
S1131DA01124EA0149914423C1F06091A901709181
S1131DB0AA01E12E0B2D2F2D8091AC019091AD0144
S1131DC00E94080E8091AC019091AD018C0D9D1D77
S1131DD09093AD018093AC01E5CF81E08093AB019A
S1131DE0DF91CF911F910F91FF90EF90DF90CF90F3
S1131DF0BF900895BF92CF92DF92EF92FF920F931C
S1131E001F93CF93DF93122FF02EBE2C9093AD012E
S1131E108093AC017093AA016093A90186E0289F86
S1131E2060011124FA014491EF0121964423C9F081
S1131E306091A9017091AA01E12E0B2D2F2D8091A3
S1131E40AC019091AD010E94080E8091AC0190917B
S1131E50AD018C0D9D1D9093AD018093AC01FE01ED
S1131E60E2CF81E08093AB01DF91CF911F910F917D
S1131E70FF90EF90DF90CF90BF90089528E030E07E
S1131E8090E8DC98492F482311F0DB9A01C0DB98D5
S1131E90DC9A969521503109A1F70895E3E9F0E021
S1131EA010828FE7818312828FE383830895E3E9AD
S1131EB0F0E0808361830895D39ADB9AD49ADC9A04
S1131EC0D19AD99AD09AD29ADA9A0895DA9AD89865
S1131ED0DA980E943E0FDA9A0895CF93DF938091A7
S1131EE0AB018823C1F080E00E94660F80E10E946C
S1131EF0660F80EB0E94660FDA9AD89ADA98CEEAD7
S1131F00D1E089910E943E0F85E0CE3AD807C9F707
S1131F10DA9A1092AB01DF91CF910895FC01809180
S1131F20930090E0E817F90794F18091940090E011
S1131F30E817F90764F58091950090E06817790730
S1131F4034F18091960090E06817790704F59B01BD
S1131F5083E0359527958A95E1F76770772736955D
S1131F60322F222737952795E20FF31FE255FE4FB4
S1131F7081E090E001C0880F6A95EAF7442319F0E4
S1131F809081892B03C08095908189238083089553
S1131F9080E094E0EEEAF1E0DF019C011D92215023
S1131FA03040E1F781E08093AB0108950F931F93D4
S1131FB0CF93DF931F92CDB7DEB7182F062F498337
S1131FC00E945C0F4981411115C0D99A2FE788E31B
S1131FD091E0215080409040E1F700C00000D99882
S1131FE02FE788E391E0215080409040E1F700C062
S1131FF00000D99A8EEA0E94660F85ED0E94660F52
S1132000802F0E94660F83ED0E94660F80E00E947D
S1132010660F80E40E94660F8DE80E94660F1130FF
S113202011F480E101C084E10E94660F80E20E9405
S1132030660F80E10E94660F81EA0E94660F88ECB9
S11320400E94660F113011F48FE901C08FEC0E94D9
S1132050660F89ED0E94660F88EA0E94660F8FE37F
S11320600E94660F8AED0E94660F82E10E94660F4D
S11320708BED0E94660F80E40E94660F84EA0E9442
S1132080660F86EA0E94660F8FEA0E94660F0F9021
S1132090DF91CF911F910F910C946D0FCF93C82FA7
S11320A081E80E94660F8C2FCF910C94660F0097E5
S11320B031F025E02A95F1F700000197F8CF089553
S11320C011B886E480B984E086BF089584EA86BFA7
S11320D006B607FEFDCF089584E986BF84E690E046
S11320E00C94571083B984E886BF06B607FEFDCF6B
S11320F0089520E4829FC0011124846886BF06B637
S113210007FEFDCF83B108950E9460100E946610FF
S113211080ED0E94721087E00E94721080E00E949D
S113212072100C946C10CF93DF93EC010E94661034
S113213080ED0E94721080E00E9472100E946C1068
S11321400E94661081ED0E94721081E00E94791055
S1132150888381E00E947910898381E00E9479104C
S11321608A8381E00E9479108B8381E00E94791038
S11321708C8381E00E9479108D8380E00E94791025
S11321808E83DF91CF910C946C10991B79E004C07D
S1132190991F961708F0961B881F7A95C9F78095A2
S11321A00895AA1BBB1B51E107C0AA1FBB1FA6179A
S11321B0B70710F0A61BB70B881F991F5A95A9F7EC
S11321C080959095BC01CD010895EE0FFF1F0590F9
S10D21D0F491E02D0994F894FFCF78
S11321DA6F7B9224E773A779ED49CF79CF7B27499F
S11321EAEF7BEF797EFF0603000001FEF7EF7EFF27
S11321FA0603000002FEF6EF7EFF0603000003FE5C
S113220AF5EFFF007F003F7EFF060C000000FEEFA3
S113221AEF3E3E20534554203C3C00202043484591
S113222A434B202000202020534554202020003EE8
S113223A3E434845434B3C3C005345542054494D86
S113224A45002053455420207365742020004241E0
S113225A434B20206261636B2000202B2F2D20200A
S113226A6578697420002057616B652075702100B8
S10F227A4241434B202D204F4B007C00C0
S9030000FC
